{
  "_format": "hh-sol-artifact-1",
  "contractName": "PrivateInfoStorage",
  "sourceName": "contracts/PrivateInfoStorage.sol",
  "abi": [
    {
      "inputs": [
        {
          "internalType": "address",
          "name": "_owner",
          "type": "address"
        },
        {
          "internalType": "address",
          "name": "_firstAddress",
          "type": "address"
        },
        {
          "internalType": "string",
          "name": "_kiichain",
          "type": "string"
        }
      ],
      "stateMutability": "nonpayable",
      "type": "constructor"
    },
    {
      "inputs": [
        {
          "internalType": "address",
          "name": "_address",
          "type": "address"
        }
      ],
      "name": "addAddressToWhiteList",
      "outputs": [],
      "stateMutability": "nonpayable",
      "type": "function"
    },
    {
      "inputs": [],
      "name": "getKiiChain",
      "outputs": [
        {
          "internalType": "string",
          "name": "",
          "type": "string"
        }
      ],
      "stateMutability": "view",
      "type": "function"
    },
    {
      "inputs": [],
      "name": "getWhiteList",
      "outputs": [
        {
          "internalType": "address[]",
          "name": "",
          "type": "address[]"
        }
      ],
      "stateMutability": "view",
      "type": "function"
    },
    {
      "inputs": [
        {
          "internalType": "string",
          "name": "_kiichain",
          "type": "string"
        }
      ],
      "name": "updateKiiChain",
      "outputs": [],
      "stateMutability": "nonpayable",
      "type": "function"
    },
    {
      "inputs": [],
      "name": "whoImI",
      "outputs": [
        {
          "internalType": "string",
          "name": "",
          "type": "string"
        }
      ],
      "stateMutability": "view",
      "type": "function"
    }
  ],
  "bytecode": "0x608060405234801561001057600080fd5b506040516114a03803806114a0833981810160405281019061003291906102c1565b6000829080600181540180825580915050600190039060005260206000200160009091909190916101000a81548173ffffffffffffffffffffffffffffffffffffffff021916908373ffffffffffffffffffffffffffffffffffffffff16021790555082600160006101000a81548173ffffffffffffffffffffffffffffffffffffffff021916908373ffffffffffffffffffffffffffffffffffffffff16021790555080600290816100e59190610551565b50505050610623565b6000604051905090565b600080fd5b600080fd5b600073ffffffffffffffffffffffffffffffffffffffff82169050919050565b600061012d82610102565b9050919050565b61013d81610122565b811461014857600080fd5b50565b60008151905061015a81610134565b92915050565b600080fd5b600080fd5b6000601f19601f8301169050919050565b7f4e487b7100000000000000000000000000000000000000000000000000000000600052604160045260246000fd5b6101b38261016a565b810181811067ffffffffffffffff821117156101d2576101d161017b565b5b80604052505050565b60006101e56100ee565b90506101f182826101aa565b919050565b600067ffffffffffffffff8211156102115761021061017b565b5b61021a8261016a565b9050602081019050919050565b60005b8381101561024557808201518184015260208101905061022a565b60008484015250505050565b600061026461025f846101f6565b6101db565b9050828152602081018484840111156102805761027f610165565b5b61028b848285610227565b509392505050565b600082601f8301126102a8576102a7610160565b5b81516102b8848260208601610251565b91505092915050565b6000806000606084860312156102da576102d96100f8565b5b60006102e88682870161014b565b93505060206102f98682870161014b565b925050604084015167ffffffffffffffff81111561031a576103196100fd565b5b61032686828701610293565b9150509250925092565b600081519050919050565b7f4e487b7100000000000000000000000000000000000000000000000000000000600052602260045260246000fd5b6000600282049050600182168061038257607f821691505b6020821081036103955761039461033b565b5b50919050565b60008190508160005260206000209050919050565b60006020601f8301049050919050565b600082821b905092915050565b6000600883026103fd7fffffffffffffffffffffffffffffffffffffffffffffffffffffffffffffffff826103c0565b61040786836103c0565b95508019841693508086168417925050509392505050565b6000819050919050565b6000819050919050565b600061044e6104496104448461041f565b610429565b61041f565b9050919050565b6000819050919050565b61046883610433565b61047c61047482610455565b8484546103cd565b825550505050565b600090565b610491610484565b61049c81848461045f565b505050565b5b818110156104c0576104b5600082610489565b6001810190506104a2565b5050565b601f821115610505576104d68161039b565b6104df846103b0565b810160208510156104ee578190505b6105026104fa856103b0565b8301826104a1565b50505b505050565b600082821c905092915050565b60006105286000198460080261050a565b1980831691505092915050565b60006105418383610517565b9150826002028217905092915050565b61055a82610330565b67ffffffffffffffff8111156105735761057261017b565b5b61057d825461036a565b6105888282856104c4565b600060209050601f8311600181146105bb57600084156105a9578287015190505b6105b38582610535565b86555061061b565b601f1984166105c98661039b565b60005b828110156105f1578489015182556001820191506020850194506020810190506105cc565b8683101561060e578489015161060a601f891682610517565b8355505b6001600288020188555050505b505050505050565b610e6e806106326000396000f3fe608060405234801561001057600080fd5b50600436106100575760003560e01c806309a9d76c1461005c5780636a5b81401461007a578063798a76c6146100965780639244f496146100b4578063ad0ce04b146100d0575b600080fd5b6100646100ee565b604051610071919061078a565b60405180910390f35b610094600480360381019061008f9190610906565b61020c565b005b61009e6102af565b6040516100ab91906109ce565b60405180910390f35b6100ce60048036038101906100c99190610a1c565b6103ca565b005b6100d86104c0565b6040516100e591906109ce565b60405180910390f35b6060600160009054906101000a900473ffffffffffffffffffffffffffffffffffffffff1673ffffffffffffffffffffffffffffffffffffffff163373ffffffffffffffffffffffffffffffffffffffff1614610180576040517f08c379a000000000000000000000000000000000000000000000000000000000815260040161017790610a95565b60405180910390fd5b600080548060200260200160405190810160405280929190818152602001828054801561020257602002820191906000526020600020905b8160009054906101000a900473ffffffffffffffffffffffffffffffffffffffff1673ffffffffffffffffffffffffffffffffffffffff16815260200190600101908083116101b8575b5050505050905090565b600160009054906101000a900473ffffffffffffffffffffffffffffffffffffffff1673ffffffffffffffffffffffffffffffffffffffff163373ffffffffffffffffffffffffffffffffffffffff161461029c576040517f08c379a000000000000000000000000000000000000000000000000000000000815260040161029390610a95565b60405180910390fd5b80600290816102ab9190610ccb565b5050565b6060600160009054906101000a900473ffffffffffffffffffffffffffffffffffffffff1673ffffffffffffffffffffffffffffffffffffffff163373ffffffffffffffffffffffffffffffffffffffff1603610343576040518060400160405280600581526020017f6f776e657200000000000000000000000000000000000000000000000000000081525090506103c7565b61034c336105f2565b1561038e576040518060400160405280600b81526020017f696e57686974654c69737400000000000000000000000000000000000000000081525090506103c7565b6040518060400160405280600781526020017f756e6b6e6f776e0000000000000000000000000000000000000000000000000081525090505b90565b600160009054906101000a900473ffffffffffffffffffffffffffffffffffffffff1673ffffffffffffffffffffffffffffffffffffffff163373ffffffffffffffffffffffffffffffffffffffff161461045a576040517f08c379a000000000000000000000000000000000000000000000000000000000815260040161045190610a95565b60405180910390fd5b6000819080600181540180825580915050600190039060005260206000200160009091909190916101000a81548173ffffffffffffffffffffffffffffffffffffffff021916908373ffffffffffffffffffffffffffffffffffffffff16021790555050565b60606104cb336105f2565b806105235750600160009054906101000a900473ffffffffffffffffffffffffffffffffffffffff1673ffffffffffffffffffffffffffffffffffffffff163373ffffffffffffffffffffffffffffffffffffffff16145b610562576040517f08c379a000000000000000000000000000000000000000000000000000000000815260040161055990610de9565b60405180910390fd5b6002805461056f90610ae4565b80601f016020809104026020016040519081016040528092919081815260200182805461059b90610ae4565b80156105e85780601f106105bd576101008083540402835291602001916105e8565b820191906000526020600020905b8154815290600101906020018083116105cb57829003601f168201915b5050505050905090565b600080600090505b60008054905081101561068f578273ffffffffffffffffffffffffffffffffffffffff166000828154811061063257610631610e09565b5b9060005260206000200160009054906101000a900473ffffffffffffffffffffffffffffffffffffffff1673ffffffffffffffffffffffffffffffffffffffff1603610682576001915050610695565b80806001019150506105fa565b50600090505b919050565b600081519050919050565b600082825260208201905092915050565b6000819050602082019050919050565b600073ffffffffffffffffffffffffffffffffffffffff82169050919050565b60006106f1826106c6565b9050919050565b610701816106e6565b82525050565b600061071383836106f8565b60208301905092915050565b6000602082019050919050565b60006107378261069a565b61074181856106a5565b935061074c836106b6565b8060005b8381101561077d5781516107648882610707565b975061076f8361071f565b925050600181019050610750565b5085935050505092915050565b600060208201905081810360008301526107a4818461072c565b905092915050565b6000604051905090565b600080fd5b600080fd5b600080fd5b600080fd5b6000601f19601f8301169050919050565b7f4e487b7100000000000000000000000000000000000000000000000000000000600052604160045260246000fd5b610813826107ca565b810181811067ffffffffffffffff82111715610832576108316107db565b5b80604052505050565b60006108456107ac565b9050610851828261080a565b919050565b600067ffffffffffffffff821115610871576108706107db565b5b61087a826107ca565b9050602081019050919050565b82818337600083830152505050565b60006108a96108a484610856565b61083b565b9050828152602081018484840111156108c5576108c46107c5565b5b6108d0848285610887565b509392505050565b600082601f8301126108ed576108ec6107c0565b5b81356108fd848260208601610896565b91505092915050565b60006020828403121561091c5761091b6107b6565b5b600082013567ffffffffffffffff81111561093a576109396107bb565b5b610946848285016108d8565b91505092915050565b600081519050919050565b600082825260208201905092915050565b60005b8381101561098957808201518184015260208101905061096e565b60008484015250505050565b60006109a08261094f565b6109aa818561095a565b93506109ba81856020860161096b565b6109c3816107ca565b840191505092915050565b600060208201905081810360008301526109e88184610995565b905092915050565b6109f9816106e6565b8114610a0457600080fd5b50565b600081359050610a16816109f0565b92915050565b600060208284031215610a3257610a316107b6565b5b6000610a4084828501610a07565b91505092915050565b7f6e6f74206f776e65720000000000000000000000000000000000000000000000600082015250565b6000610a7f60098361095a565b9150610a8a82610a49565b602082019050919050565b60006020820190508181036000830152610aae81610a72565b9050919050565b7f4e487b7100000000000000000000000000000000000000000000000000000000600052602260045260246000fd5b60006002820490506001821680610afc57607f821691505b602082108103610b0f57610b0e610ab5565b5b50919050565b60008190508160005260206000209050919050565b60006020601f8301049050919050565b600082821b905092915050565b600060088302610b777fffffffffffffffffffffffffffffffffffffffffffffffffffffffffffffffff82610b3a565b610b818683610b3a565b95508019841693508086168417925050509392505050565b6000819050919050565b6000819050919050565b6000610bc8610bc3610bbe84610b99565b610ba3565b610b99565b9050919050565b6000819050919050565b610be283610bad565b610bf6610bee82610bcf565b848454610b47565b825550505050565b600090565b610c0b610bfe565b610c16818484610bd9565b505050565b5b81811015610c3a57610c2f600082610c03565b600181019050610c1c565b5050565b601f821115610c7f57610c5081610b15565b610c5984610b2a565b81016020851015610c68578190505b610c7c610c7485610b2a565b830182610c1b565b50505b505050565b600082821c905092915050565b6000610ca260001984600802610c84565b1980831691505092915050565b6000610cbb8383610c91565b9150826002028217905092915050565b610cd48261094f565b67ffffffffffffffff811115610ced57610cec6107db565b5b610cf78254610ae4565b610d02828285610c3e565b600060209050601f831160018114610d355760008415610d23578287015190505b610d2d8582610caf565b865550610d95565b601f198416610d4386610b15565b60005b82811015610d6b57848901518255600182019150602085019450602081019050610d46565b86831015610d885784890151610d84601f891682610c91565b8355505b6001600288020188555050505b505050505050565b7f4e6f7420696e2077686974654c69737400000000000000000000000000000000600082015250565b6000610dd360108361095a565b9150610dde82610d9d565b602082019050919050565b60006020820190508181036000830152610e0281610dc6565b9050919050565b7f4e487b7100000000000000000000000000000000000000000000000000000000600052603260045260246000fdfea2646970667358221220384f7c18734af95b21d02074bd23596455b24c7546f9b403152b61f20d2bdf8f64736f6c634300081c0033",
  "linkReferences": {},
  "deployedLinkReferences": {}
}